{
  "_format": "hh-sol-artifact-1",
  "contractName": "QuadraticFundingRelayStrategyFactory",
  "sourceName": "contracts/votingStrategy/QuadraticFundingRelayStrategy/QuadraticFundingRelayStrategyFactory.sol",
  "abi": [
    {
      "anonymous": false,
      "inputs": [
        {
          "indexed": false,
          "internalType": "uint8",
          "name": "version",
          "type": "uint8"
        }
      ],
      "name": "Initialized",
      "type": "event"
    },
    {
      "anonymous": false,
      "inputs": [
        {
          "indexed": true,
          "internalType": "address",
          "name": "previousOwner",
          "type": "address"
        },
        {
          "indexed": true,
          "internalType": "address",
          "name": "newOwner",
          "type": "address"
        }
      ],
      "name": "OwnershipTransferred",
      "type": "event"
    },
    {
      "anonymous": false,
      "inputs": [
        {
          "indexed": true,
          "internalType": "address",
          "name": "votingContractAddress",
          "type": "address"
        },
        {
          "indexed": true,
          "internalType": "address",
          "name": "votingImplementation",
          "type": "address"
        }
      ],
      "name": "VotingContractCreated",
      "type": "event"
    },
    {
      "anonymous": false,
      "inputs": [
        {
          "indexed": false,
          "internalType": "address",
          "name": "votingContractAddress",
          "type": "address"
        }
      ],
      "name": "VotingContractUpdated",
      "type": "event"
    },
    {
      "inputs": [],
      "name": "create",
      "outputs": [
        {
          "internalType": "address",
          "name": "",
          "type": "address"
        }
      ],
      "stateMutability": "nonpayable",
      "type": "function"
    },
    {
      "inputs": [],
      "name": "initialize",
      "outputs": [],
      "stateMutability": "nonpayable",
      "type": "function"
    },
    {
      "inputs": [],
      "name": "owner",
      "outputs": [
        {
          "internalType": "address",
          "name": "",
          "type": "address"
        }
      ],
      "stateMutability": "view",
      "type": "function"
    },
    {
      "inputs": [],
      "name": "renounceOwnership",
      "outputs": [],
      "stateMutability": "nonpayable",
      "type": "function"
    },
    {
      "inputs": [
        {
          "internalType": "address",
          "name": "newOwner",
          "type": "address"
        }
      ],
      "name": "transferOwnership",
      "outputs": [],
      "stateMutability": "nonpayable",
      "type": "function"
    },
    {
      "inputs": [
        {
          "internalType": "address",
          "name": "newVotingContract",
          "type": "address"
        }
      ],
      "name": "updateVotingContract",
      "outputs": [],
      "stateMutability": "nonpayable",
      "type": "function"
    },
    {
      "inputs": [],
      "name": "votingContract",
      "outputs": [
        {
          "internalType": "address",
          "name": "",
          "type": "address"
        }
      ],
      "stateMutability": "view",
      "type": "function"
    }
  ],
  "bytecode": "0x608060405234801561001057600080fd5b50610d00806100206000396000f3fe608060405234801561001057600080fd5b506004361061007d5760003560e01c8063c1fc006a1161005b578063c1fc006a146100b4578063df1a86a0146100d2578063efc81a8c146100ee578063f2fde38b1461010c5761007d565b8063715018a6146100825780638129fc1c1461008c5780638da5cb5b14610096575b600080fd5b61008a610128565b005b6100946101b0565b005b61009e61024c565b6040516100ab9190610945565b60405180910390f35b6100bc610276565b6040516100c99190610945565b60405180910390f35b6100ec60048036038101906100e79190610991565b61029c565b005b6100f6610393565b6040516101039190610945565b60405180910390f35b61012660048036038101906101219190610991565b6104a6565b005b61013061059d565b73ffffffffffffffffffffffffffffffffffffffff1661014e61024c565b73ffffffffffffffffffffffffffffffffffffffff16146101a4576040517f08c379a000000000000000000000000000000000000000000000000000000000815260040161019b90610a1b565b60405180910390fd5b6101ae60006105a5565b565b60006101bc600161066b565b905080156101e0576001600060016101000a81548160ff0219169083151502179055505b6101e861075b565b6101f06107ac565b80156102495760008060016101000a81548160ff0219169083151502179055507f7f26b83ff96e1f2b6a682f133852f6798a09c465da95921460cefb384740249860016040516102409190610a8d565b60405180910390a15b50565b6000603360009054906101000a900473ffffffffffffffffffffffffffffffffffffffff16905090565b606560009054906101000a900473ffffffffffffffffffffffffffffffffffffffff1681565b6102a461059d565b73ffffffffffffffffffffffffffffffffffffffff166102c261024c565b73ffffffffffffffffffffffffffffffffffffffff1614610318576040517f08c379a000000000000000000000000000000000000000000000000000000000815260040161030f90610a1b565b60405180910390fd5b80606560006101000a81548173ffffffffffffffffffffffffffffffffffffffff021916908373ffffffffffffffffffffffffffffffffffffffff1602179055507f264f54b893dc3babe9fb9ac8e7abcc6c1397da0903359d5fed6245242ab3ef0b816040516103889190610945565b60405180910390a150565b6000806103c1606560009054906101000a900473ffffffffffffffffffffffffffffffffffffffff1661080d565b9050606560009054906101000a900473ffffffffffffffffffffffffffffffffffffffff1673ffffffffffffffffffffffffffffffffffffffff168173ffffffffffffffffffffffffffffffffffffffff167f6cf444e1bbf9068b76bcb01b51c4a796a44b52c884e215391ec5b7060143067660405160405180910390a38073ffffffffffffffffffffffffffffffffffffffff16638129fc1c6040518163ffffffff1660e01b8152600401600060405180830381600087803b15801561048757600080fd5b505af115801561049b573d6000803e3d6000fd5b505050508091505090565b6104ae61059d565b73ffffffffffffffffffffffffffffffffffffffff166104cc61024c565b73ffffffffffffffffffffffffffffffffffffffff1614610522576040517f08c379a000000000000000000000000000000000000000000000000000000000815260040161051990610a1b565b60405180910390fd5b600073ffffffffffffffffffffffffffffffffffffffff168173ffffffffffffffffffffffffffffffffffffffff1603610591576040517f08c379a000000000000000000000000000000000000000000000000000000000815260040161058890610b1a565b60405180910390fd5b61059a816105a5565b50565b600033905090565b6000603360009054906101000a900473ffffffffffffffffffffffffffffffffffffffff16905081603360006101000a81548173ffffffffffffffffffffffffffffffffffffffff021916908373ffffffffffffffffffffffffffffffffffffffff1602179055508173ffffffffffffffffffffffffffffffffffffffff168173ffffffffffffffffffffffffffffffffffffffff167f8be0079c531659141344cd1fd0a4f28419497f9722a3daafe3b4186f6b6457e060405160405180910390a35050565b60008060019054906101000a900460ff16156106e25760018260ff1614801561069a5750610698306108e1565b155b6106d9576040517f08c379a00000000000000000000000000000000000000000000000000000000081526004016106d090610bac565b60405180910390fd5b60009050610756565b8160ff1660008054906101000a900460ff1660ff1610610737576040517f08c379a000000000000000000000000000000000000000000000000000000000815260040161072e90610bac565b60405180910390fd5b816000806101000a81548160ff021916908360ff160217905550600190505b919050565b600060019054906101000a900460ff166107aa576040517f08c379a00000000000000000000000000000000000000000000000000000000081526004016107a190610c3e565b60405180910390fd5b565b600060019054906101000a900460ff166107fb576040517f08c379a00000000000000000000000000000000000000000000000000000000081526004016107f290610c3e565b60405180910390fd5b61080b61080661059d565b6105a5565b565b60006040517f3d602d80600a3d3981f3363d3d373d3d3d363d7300000000000000000000000081528260601b60148201527f5af43d82803e903d91602b57fd5bf3000000000000000000000000000000000060288201526037816000f0915050600073ffffffffffffffffffffffffffffffffffffffff168173ffffffffffffffffffffffffffffffffffffffff16036108dc576040517f08c379a00000000000000000000000000000000000000000000000000000000081526004016108d390610caa565b60405180910390fd5b919050565b6000808273ffffffffffffffffffffffffffffffffffffffff163b119050919050565b600073ffffffffffffffffffffffffffffffffffffffff82169050919050565b600061092f82610904565b9050919050565b61093f81610924565b82525050565b600060208201905061095a6000830184610936565b92915050565b600080fd5b61096e81610924565b811461097957600080fd5b50565b60008135905061098b81610965565b92915050565b6000602082840312156109a7576109a6610960565b5b60006109b58482850161097c565b91505092915050565b600082825260208201905092915050565b7f4f776e61626c653a2063616c6c6572206973206e6f7420746865206f776e6572600082015250565b6000610a056020836109be565b9150610a10826109cf565b602082019050919050565b60006020820190508181036000830152610a34816109f8565b9050919050565b6000819050919050565b600060ff82169050919050565b6000819050919050565b6000610a77610a72610a6d84610a3b565b610a52565b610a45565b9050919050565b610a8781610a5c565b82525050565b6000602082019050610aa26000830184610a7e565b92915050565b7f4f776e61626c653a206e6577206f776e657220697320746865207a65726f206160008201527f6464726573730000000000000000000000000000000000000000000000000000602082015250565b6000610b046026836109be565b9150610b0f82610aa8565b604082019050919050565b60006020820190508181036000830152610b3381610af7565b9050919050565b7f496e697469616c697a61626c653a20636f6e747261637420697320616c72656160008201527f647920696e697469616c697a6564000000000000000000000000000000000000602082015250565b6000610b96602e836109be565b9150610ba182610b3a565b604082019050919050565b60006020820190508181036000830152610bc581610b89565b9050919050565b7f496e697469616c697a61626c653a20636f6e7472616374206973206e6f74206960008201527f6e697469616c697a696e67000000000000000000000000000000000000000000602082015250565b6000610c28602b836109be565b9150610c3382610bcc565b604082019050919050565b60006020820190508181036000830152610c5781610c1b565b9050919050565b7f455243313136373a20637265617465206661696c656400000000000000000000600082015250565b6000610c946016836109be565b9150610c9f82610c5e565b602082019050919050565b60006020820190508181036000830152610cc381610c87565b905091905056fea2646970667358221220b66428a19307c198ce9355b114e9540af24bb456555b9aa0d2a4a8a7e841973f64736f6c63430008110033",
  "linkReferences": {},
  "deployedLinkReferences": {}
}