{
  "_format": "hh-sol-artifact-1",
  "contractName": "QuadraticFundingRelayStrategyImplementation",
  "sourceName": "contracts/votingStrategy/QuadraticFundingRelayStrategy/QuadraticFundingRelayStrategyImplementation.sol",
  "abi": [
    {
      "anonymous": false,
      "inputs": [
        {
          "indexed": false,
          "internalType": "uint8",
          "name": "version",
          "type": "uint8"
        }
      ],
      "name": "Initialized",
      "type": "event"
    },
    {
      "anonymous": false,
      "inputs": [
        {
          "indexed": false,
          "internalType": "address",
          "name": "token",
          "type": "address"
        },
        {
          "indexed": false,
          "internalType": "uint256",
          "name": "amount",
          "type": "uint256"
        },
        {
          "indexed": true,
          "internalType": "address",
          "name": "voter",
          "type": "address"
        },
        {
          "indexed": false,
          "internalType": "address",
          "name": "grantAddress",
          "type": "address"
        },
        {
          "indexed": true,
          "internalType": "bytes32",
          "name": "projectId",
          "type": "bytes32"
        },
        {
          "indexed": true,
          "internalType": "address",
          "name": "roundAddress",
          "type": "address"
        }
      ],
      "name": "Voted",
      "type": "event"
    },
    {
      "inputs": [],
      "name": "VERSION",
      "outputs": [
        {
          "internalType": "string",
          "name": "",
          "type": "string"
        }
      ],
      "stateMutability": "view",
      "type": "function"
    },
    {
      "inputs": [],
      "name": "init",
      "outputs": [],
      "stateMutability": "nonpayable",
      "type": "function"
    },
    {
      "inputs": [],
      "name": "initialize",
      "outputs": [],
      "stateMutability": "nonpayable",
      "type": "function"
    },
    {
      "inputs": [],
      "name": "roundAddress",
      "outputs": [
        {
          "internalType": "address",
          "name": "",
          "type": "address"
        }
      ],
      "stateMutability": "view",
      "type": "function"
    },
    {
      "inputs": [
        {
          "internalType": "bytes[]",
          "name": "encodedVotes",
          "type": "bytes[]"
        },
        {
          "internalType": "address",
          "name": "relayerAddress",
          "type": "address"
        }
      ],
      "name": "vote",
      "outputs": [],
      "stateMutability": "payable",
      "type": "function"
    }
  ],
  "bytecode": "0x608060405234801561001057600080fd5b506115b1806100206000396000f3fe60806040526004361061004a5760003560e01c80630b67d9251461004f5780638129fc1c1461007a578063e1c7392a14610091578063fc6d4e39146100a8578063ffa1ad74146100c4575b600080fd5b34801561005b57600080fd5b506100646100ef565b6040516100719190610a72565b60405180910390f35b34801561008657600080fd5b5061008f610113565b005b34801561009d57600080fd5b506100a661019f565b005b6100c260048036038101906100bd9190610b28565b610270565b005b3480156100d057600080fd5b506100d961050b565b6040516100e69190610c18565b60405180910390f35b60008054906101000a900473ffffffffffffffffffffffffffffffffffffffff1681565b600061011f6001610544565b90508015610143576001600060156101000a81548160ff0219169083151502179055505b801561019c5760008060156101000a81548160ff0219169083151502179055507f7f26b83ff96e1f2b6a682f133852f6798a09c465da95921460cefb384740249860016040516101939190610c8c565b60405180910390a15b50565b600073ffffffffffffffffffffffffffffffffffffffff1660008054906101000a900473ffffffffffffffffffffffffffffffffffffffff1673ffffffffffffffffffffffffffffffffffffffff161461022e576040517f08c379a000000000000000000000000000000000000000000000000000000000815260040161022590610cf3565b60405180910390fd5b336000806101000a81548173ffffffffffffffffffffffffffffffffffffffff021916908373ffffffffffffffffffffffffffffffffffffffff160217905550565b6002600154036102b5576040517f08c379a00000000000000000000000000000000000000000000000000000000081526004016102ac90610d5f565b60405180910390fd5b6002600181905550600073ffffffffffffffffffffffffffffffffffffffff1660008054906101000a900473ffffffffffffffffffffffffffffffffffffffff1673ffffffffffffffffffffffffffffffffffffffff160361034c576040517f08c379a000000000000000000000000000000000000000000000000000000000815260040161034390610df1565b60405180910390fd5b60008054906101000a900473ffffffffffffffffffffffffffffffffffffffff1673ffffffffffffffffffffffffffffffffffffffff163373ffffffffffffffffffffffffffffffffffffffff16146103da576040517f08c379a00000000000000000000000000000000000000000000000000000000081526004016103d190610e83565b60405180910390fd5b60005b838390508110156104fe57600080600080600088888781811061040357610402610ea3565b5b90506020028101906104159190610ee1565b8101906104229190610fee565b94509450945094509450600073ffffffffffffffffffffffffffffffffffffffff168473ffffffffffffffffffffffffffffffffffffffff160361046f5761046a8284610637565b61047c565b61047b8486848661072b565b5b3373ffffffffffffffffffffffffffffffffffffffff16818673ffffffffffffffffffffffffffffffffffffffff167f4182eb95d486b42fddcea225162f9a5f93b06dfebeddf5819d0f57f2c6af3e1b8787876040516104de93929190611078565b60405180910390a4505050505080806104f6906110de565b9150506103dd565b5060018081905550505050565b6040518060400160405280600581526020017f302e312e3000000000000000000000000000000000000000000000000000000081525081565b60008060159054906101000a900460ff16156105bb5760018260ff161480156105735750610571306107b4565b155b6105b2576040517f08c379a00000000000000000000000000000000000000000000000000000000081526004016105a990611198565b60405180910390fd5b60009050610632565b8160ff16600060149054906101000a900460ff1660ff1610610612576040517f08c379a000000000000000000000000000000000000000000000000000000000815260040161060990611198565b60405180910390fd5b81600060146101000a81548160ff021916908360ff160217905550600190505b919050565b8047101561067a576040517f08c379a000000000000000000000000000000000000000000000000000000000815260040161067190611204565b60405180910390fd5b60008273ffffffffffffffffffffffffffffffffffffffff16826040516106a090611255565b60006040518083038185875af1925050503d80600081146106dd576040519150601f19603f3d011682016040523d82523d6000602084013e6106e2565b606091505b5050905080610726576040517f08c379a000000000000000000000000000000000000000000000000000000000815260040161071d906112dc565b60405180910390fd5b505050565b6107ae846323b872dd60e01b85858560405160240161074c939291906112fc565b604051602081830303815290604052907bffffffffffffffffffffffffffffffffffffffffffffffffffffffff19166020820180517bffffffffffffffffffffffffffffffffffffffffffffffffffffffff83818316178352505050506107d7565b50505050565b6000808273ffffffffffffffffffffffffffffffffffffffff163b119050919050565b6000610839826040518060400160405280602081526020017f5361666545524332303a206c6f772d6c6576656c2063616c6c206661696c65648152508573ffffffffffffffffffffffffffffffffffffffff1661089e9092919063ffffffff16565b90506000815111156108995780806020019051810190610859919061136b565b610898576040517f08c379a000000000000000000000000000000000000000000000000000000000815260040161088f9061140a565b60405180910390fd5b5b505050565b60606108ad84846000856108b6565b90509392505050565b6060824710156108fb576040517f08c379a00000000000000000000000000000000000000000000000000000000081526004016108f29061149c565b60405180910390fd5b610904856107b4565b610943576040517f08c379a000000000000000000000000000000000000000000000000000000000815260040161093a90611508565b60405180910390fd5b6000808673ffffffffffffffffffffffffffffffffffffffff16858760405161096c9190611564565b60006040518083038185875af1925050503d80600081146109a9576040519150601f19603f3d011682016040523d82523d6000602084013e6109ae565b606091505b50915091506109be8282866109ca565b92505050949350505050565b606083156109da57829050610a2a565b6000835111156109ed5782518084602001fd5b816040517f08c379a0000000000000000000000000000000000000000000000000000000008152600401610a219190610c18565b60405180910390fd5b9392505050565b600073ffffffffffffffffffffffffffffffffffffffff82169050919050565b6000610a5c82610a31565b9050919050565b610a6c81610a51565b82525050565b6000602082019050610a876000830184610a63565b92915050565b600080fd5b600080fd5b600080fd5b600080fd5b600080fd5b60008083601f840112610abc57610abb610a97565b5b8235905067ffffffffffffffff811115610ad957610ad8610a9c565b5b602083019150836020820283011115610af557610af4610aa1565b5b9250929050565b610b0581610a51565b8114610b1057600080fd5b50565b600081359050610b2281610afc565b92915050565b600080600060408486031215610b4157610b40610a8d565b5b600084013567ffffffffffffffff811115610b5f57610b5e610a92565b5b610b6b86828701610aa6565b93509350506020610b7e86828701610b13565b9150509250925092565b600081519050919050565b600082825260208201905092915050565b60005b83811015610bc2578082015181840152602081019050610ba7565b60008484015250505050565b6000601f19601f8301169050919050565b6000610bea82610b88565b610bf48185610b93565b9350610c04818560208601610ba4565b610c0d81610bce565b840191505092915050565b60006020820190508181036000830152610c328184610bdf565b905092915050565b6000819050919050565b600060ff82169050919050565b6000819050919050565b6000610c76610c71610c6c84610c3a565b610c51565b610c44565b9050919050565b610c8681610c5b565b82525050565b6000602082019050610ca16000830184610c7d565b92915050565b7f696e69743a20726f756e644164647265737320616c7265616479207365740000600082015250565b6000610cdd601e83610b93565b9150610ce882610ca7565b602082019050919050565b60006020820190508181036000830152610d0c81610cd0565b9050919050565b7f5265656e7472616e637947756172643a207265656e7472616e742063616c6c00600082015250565b6000610d49601f83610b93565b9150610d5482610d13565b602082019050919050565b60006020820190508181036000830152610d7881610d3c565b9050919050565b7f6572726f723a20766f74696e6720636f6e7472616374206e6f74206c696e6b6560008201527f6420746f206120726f756e640000000000000000000000000000000000000000602082015250565b6000610ddb602c83610b93565b9150610de682610d7f565b604082019050919050565b60006020820190508181036000830152610e0a81610dce565b9050919050565b7f6572726f723a2063616e20626520696e766f6b6564206f6e6c7920627920726f60008201527f756e6420636f6e74726163740000000000000000000000000000000000000000602082015250565b6000610e6d602c83610b93565b9150610e7882610e11565b604082019050919050565b60006020820190508181036000830152610e9c81610e60565b9050919050565b7f4e487b7100000000000000000000000000000000000000000000000000000000600052603260045260246000fd5b600080fd5b600080fd5b600080fd5b60008083356001602003843603038112610efe57610efd610ed2565b5b80840192508235915067ffffffffffffffff821115610f2057610f1f610ed7565b5b602083019250600182023603831315610f3c57610f3b610edc565b5b509250929050565b6000610f4f82610a31565b9050919050565b610f5f81610f44565b8114610f6a57600080fd5b50565b600081359050610f7c81610f56565b92915050565b6000819050919050565b610f9581610f82565b8114610fa057600080fd5b50565b600081359050610fb281610f8c565b92915050565b6000819050919050565b610fcb81610fb8565b8114610fd657600080fd5b50565b600081359050610fe881610fc2565b92915050565b600080600080600060a0868803121561100a57611009610a8d565b5b600061101888828901610f6d565b955050602061102988828901610f6d565b945050604061103a88828901610fa3565b935050606061104b88828901610f6d565b925050608061105c88828901610fd9565b9150509295509295909350565b61107281610f82565b82525050565b600060608201905061108d6000830186610a63565b61109a6020830185611069565b6110a76040830184610a63565b949350505050565b7f4e487b7100000000000000000000000000000000000000000000000000000000600052601160045260246000fd5b60006110e982610f82565b91507fffffffffffffffffffffffffffffffffffffffffffffffffffffffffffffffff820361111b5761111a6110af565b5b600182019050919050565b7f496e697469616c697a61626c653a20636f6e747261637420697320616c72656160008201527f647920696e697469616c697a6564000000000000000000000000000000000000602082015250565b6000611182602e83610b93565b915061118d82611126565b604082019050919050565b600060208201905081810360008301526111b181611175565b9050919050565b7f416464726573733a20696e73756666696369656e742062616c616e6365000000600082015250565b60006111ee601d83610b93565b91506111f9826111b8565b602082019050919050565b6000602082019050818103600083015261121d816111e1565b9050919050565b600081905092915050565b50565b600061123f600083611224565b915061124a8261122f565b600082019050919050565b600061126082611232565b9150819050919050565b7f416464726573733a20756e61626c6520746f2073656e642076616c75652c207260008201527f6563697069656e74206d61792068617665207265766572746564000000000000602082015250565b60006112c6603a83610b93565b91506112d18261126a565b604082019050919050565b600060208201905081810360008301526112f5816112b9565b9050919050565b60006060820190506113116000830186610a63565b61131e6020830185610a63565b61132b6040830184611069565b949350505050565b60008115159050919050565b61134881611333565b811461135357600080fd5b50565b6000815190506113658161133f565b92915050565b60006020828403121561138157611380610a8d565b5b600061138f84828501611356565b91505092915050565b7f5361666545524332303a204552433230206f7065726174696f6e20646964206e60008201527f6f74207375636365656400000000000000000000000000000000000000000000602082015250565b60006113f4602a83610b93565b91506113ff82611398565b604082019050919050565b60006020820190508181036000830152611423816113e7565b9050919050565b7f416464726573733a20696e73756666696369656e742062616c616e636520666f60008201527f722063616c6c0000000000000000000000000000000000000000000000000000602082015250565b6000611486602683610b93565b91506114918261142a565b604082019050919050565b600060208201905081810360008301526114b581611479565b9050919050565b7f416464726573733a2063616c6c20746f206e6f6e2d636f6e7472616374000000600082015250565b60006114f2601d83610b93565b91506114fd826114bc565b602082019050919050565b60006020820190508181036000830152611521816114e5565b9050919050565b600081519050919050565b600061153e82611528565b6115488185611224565b9350611558818560208601610ba4565b80840191505092915050565b60006115708284611533565b91508190509291505056fea2646970667358221220199ff3ebdeaca65be3f1496aa8e7b9dadca7fb5a5713fccb8ee6f9480a7582a764736f6c63430008110033",
  "linkReferences": {},
  "deployedLinkReferences": {}
}